:100000000000022091010000BD010000BD010000C0
:10001000BD010000BD010000BD010000BD010000E8
:10002000BD010000BD010000BD010000BD010000D8
:10003000BD010000BC010000BD010000BD010000C9
:10004000BD010000BD010000BD010000BD010000B8
:10005000BD010000BD010000BD010000BD010000A8
:10006000BD010000BD010000BD010000BD01000098
:10007000BD010000BD010000BD010000BD01000088
:10008000BD010000BD010000BD010000BD01000078
:10009000BD010000BD010000BD010000BD01000068
:1000A000BD010000BD010000BD010000BD01000058
:1000B000BD010000BD010000BD010000BD01000048
:1000C000BD010000BD010000BD010000BD01000038
:1000D000BD010000BD010000BD01000010B5054CD0
:1000E000237833B9044B13B10448AFF300800123E4
:1000F000237010BD74000020000000004C170000A9
:1001000008B5034B1BB103490348AFF3008008BD9A
:1001100000000000780000204C170000154B002B59
:1001200008BF134B9D46A3F5803A00218B460F462E
:100130001348144A121A01F0E5FA0F4B002B00D0B5
:1001400098470E4B002B00D0984700200021040058
:100150000D000D48002802D00C48AFF3008001F0DC
:10016000ADFA2000290001F0DFF801F093FA00BF9A
:100170000000080000000220000000000000000055
:10018000740000209000002000000000000000002B
:10019000064880470649074A074B9A42BEBF51F8B6
:1001A000040B42F8040BF8E7FFF7B8FF0D0300005B
:1001B000581700000000002074000020FEE700BF78
:1001C00080B400AF034BDB6C1B0EDBB21846BD46A0
:1001D00080BC7047B081E00F80B582B000AF00F006
:1001E00015F87860074B5B6803F00F037A6822FA12
:1001F00003F37B60044A7B6813607B68184608370A
:10020000BD4680BD00800C400800002080B582B053
:1002100000AF334BDB6A03F47053B3F5805F0AD051
:10022000B3F5005F03D0B3F5006F08D00BE02D4BA2
:100230001B687B6047E04FF400437B6043E02A4B40
:100240001B687B603FE0264BDB6803F4E063B3F59B
:10025000007F1BD0B3F5007F05D8002B24D0B3F569
:10026000807F16D02BE0B3F5806F09D0B3F5A06F77
:1002700003D0B3F5407F06D021E01C4B7B6021E02A
:100280001B4B7B601EE01B4B7B601BE01A4B7B60B3
:1002900018E0FFF795FF0346122B02D9174B7B603E
:1002A00010E0174B7B600DE0FFF78AFF0346122B2F
:1002B00002D9144B7B6005E0134B7B6002E0002306
:1002C0007B6000BF00BF064B1B689B0B03F007035E
:1002D00001337A68B2FBF3F318460837BD4680BD98
:1002E00000800C400400002000000020003FAB0113
:1002F000406F4001809FD500C0D8A70040B5640082
:10030000C0CF6A00804F120040420F0080B400AF9F
:10031000034B044A9A6000BFBD4680BC704700BFD3
:1003200000ED00E00000000080B400AF4FF4004397
:100330001846BD4680BC704780B400AF4FF47A7356
:100340001846BD4680BC704780B400AF024B1B68A6
:100350001846BD4680BC70470400002080B487B0BA
:1003600000AFF860B9607A60FB6803F10473DA00EB
:10037000BB6813449B007B617B697A681A6000BF8D
:100380001C37BD4680BC704780B485B000AF786034
:1003900039607B6803F10473DA003B6813449B0007
:1003A000FB60FB681B6818461437BD4680BC70476D
:1003B00080B483B000AF786001227B6802FA03F357
:1003C00018460C37BD4680BC704780B485B000AF7E
:1003D00078607B68002B03D07B68B3F5004F00BFCB
:1003E0007B68B3FA83F3DBB2C3F11F03FB60FB68E6
:1003F00018461437BD4680BC7047000080B400AF7B
:10040000034BDB6C1B0EDBB21846BD4680BC70474D
:10041000B081E00F80B400AF034BDB6C1B0CDBB290
:100420001846BD4680BC7047B081E00F80B582B0F1
:1004300000AFFFF7EFFF03464A2B04D0792B02D021
:10044000482B23D024E0154B1B699BB21B029BB2A7
:1004500003F47C53FB80114B9B691B091B0103F0C8
:10046000F0039AB2FB881343FB800C4BDB691B093A
:1004700003F00F039AB2FB881343FB80FB88B3F5AC
:10048000017F01D3064B04E0064B02E0054B00E080
:10049000002318460837BD4680BD00BFD0FF0FE0DF
:1004A00000366E010048E80180B584B000AF786086
:1004B0000123FB60FFF7BAFF02467B68934204D832
:1004C0000023FB600023BB600BE0FFF7AFFF034698
:1004D0005B007A689A4202D80123BB6001E00223E4
:1004E000BB60FA681E210848FFF738FF064B5B68BF
:1004F00023F48072BB681B02034913434B6000BFA7
:100500001037BD4680BD00BF00800C4080B582B072
:1005100000AF1E210448FFF737FF78607B6818465C
:100520000837BD4680BD00BF00800C4080B582B05A
:1005300000AF214B5B6903F4E063B3F5007F1CD08F
:10054000B3F5007F05D8002B25D0B3F5807F1FD0F1
:100550002AE0B3F5C06F24D0B3F5E06F1ED0B3F539
:10056000407F21D1FFF74AFF0346122B02D9134BDC
:100570007B601CE0124B7B6019E0FFF73FFF0346F6
:10058000122B02D90F4B7B6011E00F4B7B600EE00A
:100590000E4B7B600BE00E4B7B6008E00D4B7B60ED
:1005A00005E00D4B7B6002E000237B6000BF7B68B1
:1005B00018460837BD4680BD00800C40804F1200B1
:1005C00040420F0040B56400C0CF6A00C0D8A70009
:1005D000809FD500406F4001003FAB0180B582B0E5
:1005E00000AF0D4800F006FB0346FB70FB78072BBD
:1005F00005D0092B07D1FFF709FE786006E0FFF769
:1006000095FF786002E000237B6000BF7B6818469E
:100610000837BD4680BD00BF06000E0090B585B00E
:1006200000AF78600023BB607B68344A934203D0FC
:10063000334A934200D000E000BF786800F0DAFA55
:100640000346FB607B682D4A934203D02C4A9342B9
:1006500006D00CE02B4B9B6A03F00303FB6006E023
:10066000284B9B6A9B0803F00303FB6000BFFB68F9
:10067000032B39D801A252F823F000BFB3060000C3
:100680008D060000950600009D060000FFF74CFE59
:10069000B8602DE0FFF758FEB86029E0FFF79CFD39
:1006A0000446FFF733FF0346013324FA03F3BB602C
:1006B0001EE00023BB607B68104A934203D07B6836
:1006C0000F4A934213D10F4B9A6A7B680B498B42B6
:1006D00001D1102300E0142322FA03F3002B06D0EB
:1006E000FFF72AFEB86002E00023BB6000E000BF15
:1006F000BB6818461437BD4690BD00BF02001E00FF
:100700000300200000800C4080B483B000AF78600C
:10071000094B5B6D03F00103002B07D100BF064BB3
:100720001A6D7B681340002BF9D100E000BF0C3735
:10073000BD4680BC704700BF00800C4080B582B0D1
:1007400000AF104800F056FA0346FB70FB78032B0D
:1007500007D0092B09D0022B0BD1FFF7F5FD7860EC
:100760000AE0FFF7E1FD786006E0FFF74FFD7860F3
:1007700002E000237B6000BF7B6818460837BD4657
:1007800080BD00BF0723260090B585B000AF78601C
:100790007B681B0903F00F03BB60BB68013B0C2B9C
:1007A00000F2AE8001A252F823F000BFE107000082
:1007B0000109000001090000F10700000109000023
:1007C000010900000508000033080000BF08000010
:1007D00001090000010900000109000019080000DA
:1007E0004B4B1B689B0B03F007030133FB608AE054
:1007F000474B9B6803F00F03FB60F868FFF7D8FDD9
:10080000F86080E0424B5B6803F00F03FB60F86820
:10081000FFF7CEFDF86076E03D4B5B681B0A03F006
:100820000103FB60FB6801331846FFF7C1FDF86068
:1008300069E07B68374A934218D0364A934203D81E
:10084000354A934207D036E0344A934219D0344AAD
:10085000934226D02FE02E4B9B6E1B0903F00F0313
:10086000FB60F868FFF7A4FDF86027E0284B9B6E5B
:100870001B0A03F00F03FB60F868FFF799FDF860AF
:100880001CE0234B9B6E1B0B03F003041020FFF7AF
:100890009CFD03462344FB60F868FFF789FDF86080
:1008A0000CE01B4B9B6E03F00303FB60F868FFF743
:1008B0007FFDF86002E00123FB6000BF23E07B685E
:1008C000184A934203D0184A93420AD014E0104BBE
:1008D0001B6F03F00303FB60F868FFF769FDF86026
:1008E0000DE00B4B1B6F1B0903F00303FB60F86863
:1008F000FFF75EFDF86002E00123FB6000BF02E04D
:100900000123FB6000BFFB6818461437BD4690BD4D
:1009100000800C40802616008016120080002A00FD
:1009200080062E0090071A0090171C0080B586B034
:1009300000AF78600B46FB7000233B617B681B0AAD
:1009400003F00F03013B092B44D801A252F823F016
:100950008B0900009109000079090000D509000009
:10096000D509000097090000A1090000D509000081
:10097000D5090000AB090000184B7B61FFF72CFC88
:1009800003461846FFF790FD12E0154B7B610FE020
:10099000144B7B610CE0144B7B6101233B6107E04E
:1009A000124B7B6110233B6102E0114B7B6100BF66
:1009B0007B681B0B03F01F03FB603B69002B02D01D
:1009C0003869FFF7A1FEFB781A46F9687869FFF7E6
:1009D000C5FC00E000BF1837BD4680BD40800C401C
:1009E00008800C4044800C4058800C4060800C40D3
:1009F00078800C4090B585B000AF78607B6803F4D8
:100A00007813B3F5D01F00F0B480B3F5D01F1AD817
:100A1000B3F5602F00F0C880B3F5602F08D8B3F5A8
:100A2000003F45D0B3F5802F36D0002B30D0D2E038
:100A3000B3F5901F45D0B3F5B01F50D0B3F5801F6C
:100A400000F0B680C7E0B3F5181F00F0B580B3F52D
:100A5000181F0BD8B3F5F01F2ED0B3F5001F00F010
:100A60008380B3F5E01F00F09180B4E0B3F5301F50
:100A700056D0B3F5301F03D8B3F5281F3DD0AAE0F8
:100A8000B3F5381F63D0B3F5781F00F09980A2E06A
:100A9000FFF7BCFBF860A1E0FFF7B8FBF860524B32
:100AA0009B6803F00F03FA6822FA03F3FB6095E0FA
:100AB000FFF792FBF86091E04C48FFF7AFFDF8605C
:100AC0008CE04A48FFF7AAFDF860474B9B6E1B0974
:100AD00003F00F03FA6822FA03F3FB607EE0434859
:100AE000FFF79CFDF860404B9B6E1B0A03F00F0361
:100AF000FA6822FA03F3FB6070E03C48FFF78EFDD2
:100B0000F860394B9B6E1B0B03F003041020FFF7BA
:100B10005CFC03462344FA6822FA03F3FB605DE0C1
:100B20003248FFF77BFDF8602F4B9B6E1B0B03F0E9
:100B30000303FA6822FA03F3FB602B4BDB6F03F02D
:100B400007030133FA68B2FBF3F3FB6046E0274882
:100B5000FFF764FDF860244B9B6E03F00303FA6813
:100B600022FA03F3FB6039E02148FFF757FDF860F4
:100B700034E01F48FFF752FDF8601B4B1B6F03F07A
:100B80000303FA6822FA03F3FB6027E01848FFF733
:100B900045FDF860144B1B6F1B0903F00303FA6853
:100BA00022FA03F3FB6019E0FFF718FDF86015E087
:100BB000FFF7BCFCF86011E0FFF7C0FDF8600DE046
:100BC000FFF70AFB04467868FFF7DEFD0346B4FB37
:100BD000F3F3FB6002E00023FB6000BFFB681846F4
:100BE0001437BD4690BD00BF00800C4002001E00BF
:100BF0000300200080B485B000AF78600123FB7350
:100C00007B6803F00F03BB60BB68013B062B00F25F
:100C1000938001A252F823F0350C00006B0C000009
:100C2000A70C0000390D0000390D0000E30C000096
:100C3000050D0000454BDB6A03F47053B3F5805F8C
:100C400009D0B3F5005F03D0B3F5006F06D008E01C
:100C50000223FB7308E00323FB7305E00423FB730B
:100C600002E00523FB7300BF69E0384B9B6A03F089
:100C70000303022B06D0032B07D0012B08D103233B
:100C8000FB730FE00223FB730CE00623FB7309E008
:100C90002E4B9B6A03F48033002B02D00A23FB7394
:100CA00000E000BF4BE0294B9B6A03F00C03082BCC
:100CB00006D00C2B07D0042B08D10323FB730FE0C5
:100CC0000223FB730CE00623FB7309E01F4B9B6AB6
:100CD00003F48013002B02D00A23FB7300E000BF53
:100CE0002DE01A4B1B6803F08053002B03D0B3F1A7
:100CF000805F03D023E00723FB7302E00923FB732B
:100D000000BF1CE0114BDB6A03F46033B3F5803F96
:100D100008D0B3F5003F08D0B3F5004F08D1092340
:100D2000FB7308E00223FB7305E00323FB7302E07F
:100D30000123FB7300BF02E00023FB7300BFFB7BBA
:100D400018461437BD4680BC704700BF00800C4079
:100D500080B483B000AF03463960FB71FB79002B90
:100D60000DD0FB79012B0AD0FB79022B07D0FB7940
:100D7000032B04D0FB79042B01D0FB79052B012236
:100D80003B6802FA03F30749FA7918461346DB0079
:100D900013449B000B441433186000BF0C37BD464E
:100DA00080BC70470060004080B483B000AF034651
:100DB0003960FB71FB79002B0DD0FB79012B0AD038
:100DC000FB79022B07D0FB79032B04D0FB79042B92
:100DD00001D0FB79052B01223B6802FA03F3074996
:100DE000FA7918461346DB0013449B000B4410337A
:100DF000186000BF0C37BD4680BC704700600040E3
:100E000080B584B000AFB9607B600346FB731346C6
:100E1000BB73FB7B002B0DD0FB7B012B0AD0FB7B34
:100E2000022B07D0FB7B032B04D0FB7B042B01D0D0
:100E3000FB7B052BBB7B002B0DD07B68002B05D0EB
:100E4000FB7BB9681846FFF7AFFF04E0FB7BB9688E
:100E50001846FFF77DFFBB68072B20D82D49FA7B8A
:100E60001346DB0013449B000B4404331A68BB6831
:100E70009B000F2101FA03F3DB431340B97BBA68EF
:100E8000920001FA02F211462248FA7B19431346F6
:100E9000DB0013449B0003440433196025E01D4923
:100EA000FA7B1346DB0013449B000B4408331A689B
:100EB000BB6803F18043083B9B000F2101FA03F359
:100EC000DB4302EA0301BA7BBB6803F18043083BC2
:100ED0009B0002FA03F30F48FA7B19431346DB0029
:100EE00013449B00034408331960BB7B002B0DD1D6
:100EF0007B68002B05D0FB7BB9681846FFF754FFD1
:100F000004E0FB7BB9681846FFF722FF00BF1037EB
:100F1000BD4680BD0060004080B485B000AF786001
:100F20001A4B5B69DBB29B00DBB203F03C03FB7343
:100F3000164B1B699B09DBB203F00303DAB2FB7BA0
:100F40001343FB737B68FA7B9A70104B1B69DBB20F
:100F500003F03F03DAB27B685A700C4B9B691B09A4
:100F6000DBB21B01FB73094BDB691B09DBB203F02E
:100F70000F03DAB2FB7B1343FB737B68FA7B1A70B7
:100F800000BF1437BD4680BC704700BFD0FF0FE0E4
:100F900080B483B000AF78600B46FB70FB7843F001
:100FA0001003DBB21A467B689A6500BF0C37BD465A
:100FB00080BC704780B586B000AFF860B9607A60D9
:100FC000FB70BB68002B03D12448FFF713FDB8600A
:100FD000FB78202B0CD0202B02DC002B05D03AE034
:100FE000402B08D0602B09D035E010237B6108E04E
:100FF00008237B6105E006237B6102E004237B611B
:1010000000BFBB689A007B69796801FB03F35B084A
:1010100013443B617B697A6802FB03F33A69B2FBD4
:10102000F3F33B613B69043B3B613B699B013B61E3
:101030003A690B4B13403B61FB681B6823F060026D
:10104000FB681A60FB681A68FB781A43FB681A6031
:10105000FB683A695A611837BD4680BD408104007B
:10106000C0FF1F0080B485B000AF78600B46FB70F6
:101070007B68134A93420ED07B68124A93420AD08F
:101080007B68114A934206D07B68104A934202D093
:101090007B680F4A934200BFFB78DB43FB60FB6831
:1010A00003F00503FB60FB685A007B68DA60FA789E
:1010B0007B68DA6000BF1437BD4680BC704700BF54
:1010C00000C0004000C4004000C8004000E00040F4
:1010D00000E4004080B582B000AF786039607B6882
:1010E000284A93420ED07B68274A93420AD07B68F5
:1010F000264A934206D07B68254A934202D07B68F9
:10110000244A934200BF786800F046F83B689B7C15
:10111000002B05D07B681B6843F080427B681A6017
:101120003B68DB7C002B05D03B681B7D194678684B
:10113000FFF72EFF3B685B7B1A463B681B8A134315
:101140003A68D2891A437B685A603B6859683B68A1
:101150009A683B681B7B7868FFF72CFF3B685B7DD8
:10116000002B05D07B681B6843F480327B681A60D3
:101170003B681B781A467B68DA6000BF0837BD46BB
:1011800080BD00BF00C0004000C4004000C8004057
:1011900000E0004000E4004080B483B000AF78601D
:1011A0007B68244A93420ED07B68234A93420AD03C
:1011B0007B68224A934206D07B68214A934202D040
:1011C0007B68204A934200BF7B6840F6AA62DA60DF
:1011D0007B6800221A607B6841F205025A607B68D6
:1011E00000229A607B6800225A617B680022DA64E0
:1011F0007B6841F6F9729A647B6800225A657B68C5
:101200000C4A934202D17B6800221A657B68002257
:101210009A657B68084A934203D07B68074A9342E9
:1012200002D17B680022DA6500BF0C37BD4680BC66
:10123000704700BF00C0004000C4004000C800402C
:1012400000E0004000E4004080B483B000AF78606C
:1012500000BF7B681B6903F08003002BF9D07B681B
:10126000DB69DBB218460C37BD4680BC7047000016
:1012700080B400AF034BDB6C1B0EDBB21846BD46DF
:1012800080BC7047B081E00F80B483B000AF0346EC
:101290003960FB71FB79002B0DD0FB79012B0AD053
:1012A000FB79022B07D0FB79032B04D0FB79042BAD
:1012B00001D0FB79052B01223B6802FA03F30749B1
:1012C000FA7918461346DB0013449B000B44143391
:1012D000186000BF0C37BD4680BC704700600040FE
:1012E00080B582B000AF0E4B01221A64FFF7C0FF39
:1012F0000346FB713B1D1846FFF70EFEFB790F2BD3
:101300000AD93B79022B07D9064B1B6823F05003FF
:10131000044A43F01003136000BF0837BD4680BD88
:1013200000000C40C0800C40B0B588B000AF794BD5
:101330003C1D1D460FCD0FC495E8030084E8030053
:10134000FFF7CEFF01217448FFF7F0FA012173483F
:10135000FFF7ECFA0123042200210320FFF750FDE0
:1013600000210320FFF790FF012301220121032028
:10137000FFF746FD01210320FFF786FF012304222A
:1013800000210220FFF73CFD00210220FFF77CFF37
:101390000123042203210220FFF732FD0321022052
:1013A000FFF772FF0123042204210220FFF728FD2A
:1013B00004210220FFF768FF0123042205210220F7
:1013C000FFF71EFD05210220FFF75EFF0123042227
:1013D00002210320FFF714FD02210320FFF754FF31
:1013E0000123042203210320FFF70AFD0321032028
:1013F000FFF74AFF0123042204210320FFF700FD29
:1014000004210320FFF740FF0123042205210320CC
:10141000FFF7F6FC05210320FFF736FF4FF4964354
:10142000FB6005237B7400237B824FF48053BB82D7
:101430003B1D19463A48FFF74DFE394B5B6D384A64
:1014400043F480735365364B5B6D354A43F00103BB
:101450005365334B5B6D324A43F0020353650521FC
:101460002F48FFF7FFFD0023FB770023BB77002306
:101470007B772B48FFF7E8FE0346FB77FB7F002BCB
:10148000F7D12748FFF7E0FE0346FB77FB7F552B9C
:10149000EFD12348FFF7D8FE0346FB77FB7F8B2B6A
:1014A000E7D11F48FFF7D0FE0346BB77BB7F022B77
:1014B00005D100F08FF800F0BDF800F0DFF8BB7F39
:1014C000012B05D100F092F800F0A8F800F0D6F852
:1014D000BB7F002B01D100F095F81148FFF7B4FE57
:1014E00003467B777B7F012B05D100F097F800F056
:1014F000B9F800F087F87B7F022B05D100F09AF84D
:1015000000F0A4F800F07EF87B7F002BB1D100F052
:10151000B5F8AEE73017000000D204000012040056
:1015200000C4004080B483B000AF03463960FB7153
:10153000FB79002B0DD0FB79012B0AD0FB79022B14
:1015400007D0FB79032B04D0FB79042B01D0FB7966
:10155000052B01223B6802FA03F30749FA79184682
:101560001346DB0013449B000B441433186000BF88
:101570000C37BD4680BC70470060004080B483B02B
:1015800000AF03463960FB71FB79002B0DD0FB796E
:10159000012B0AD0FB79022B07D0FB79032B04D057
:1015A000FB79042B01D0FB79052B01223B6802FA61
:1015B00003F30749FA7918461346DB0013449B00EE
:1015C0000B441033186000BF0C37BD4680BC704719
:1015D0000060004080B500AF00210220FFF7CEFF81
:1015E00003210220FFF7CAFF00BF80BD80B500AF16
:1015F00000210220FFF796FF03210220FFF7BEFF24
:1016000000BF80BD80B500AF00210220FFF78AFF38
:1016100003210220FFF786FF00BF80BD80B500AF29
:1016200004210220FFF7AAFF05210220FFF7A6FFF1
:1016300000BF80BD80B500AF04210220FFF772FF1C
:1016400005210220FFF79AFF00BF80BD80B500AFE3
:1016500002210320FFF792FF03210320FFF78EFFF3
:1016600000BF80BD80B500AF02210320FFF75AFF05
:1016700003210320FFF782FF00BF80BD80B500AFCC
:1016800002210320FFF74EFF03210320FFF74AFF4B
:1016900000BF80BD08B5074B044613B10021AFF36E
:1016A0000080054B1868836A03B19847204600F014
:1016B00031F800BF000000004817000070B5002599
:1016C0000C4E0D4CA41BA410A54209D100F024F827
:1016D00000250A4E0A4CA41BA410A54205D170BDDA
:1016E00056F8253098470135EEE756F825309847EB
:1016F0000135F2E76C0000206C0000206C00002037
:101700007000002003460244934200D1704703F862
:10171000011BF9E7FEE700BFF8B500BFF8BC08BC45
:101720009E467047F8B500BFF8BC08BC9E4670479F
:10173000050000000000000000C2010000050000DC
:1017400000100000000000000C000020000000005D
:08175000CCE9FF7F010000005D
:10175800006CDC0200800000809FD50000000000C3
:101768000000000000000000000000000000000071
:101778000000000000000000000000000000000061
:101788000000000000000000000000000000000051
:101798000000000000000000000000000000000041
:1017A8000000000000000000000000000000000031
:1017B800000000000000000000000000010100001F
:0417C800DD00000040
:040000030000019167
:00000001FF
